:020000041000EA
:1000000000B5324B212058609868022188439860DF
:10001000D860186158612E4B002199600221596106
:100020000121F02299502B49196001219960352056
:1000300000F044F80222904214D00621196600F024
:1000400034F8196E01211966002018661A6600F04E
:100050002CF8196E196E196E052000F02FF8012189
:100060000842F9D1002199601B49196000215960AB
:100070001A491B48016001219960EB211966A021F2
:10008000196600F012F800219960164914480160C1
:100090000121996001BC002800D000471248134993
:1000A000086003C880F30888084703B5996A0420EC
:1000B0000142FBD001200142F8D103BD02B5186610
:1000C0001866FFF7F2FF186E186E02BD00000240BE
:1000D000000000180000070000035F00212200005C
:1000E000F4000018222000A00001001008ED00E03C
:1000F00000000000000000000000000074B24E7A12
:1001000000200420F7010010C3010010C5010010F9
:10011000C1010010C1010010C1010010C101001097
:10012000C1010010C1010010C1010010C701001081
:10013000C1010010C1010010C9010010CB01001065
:10014000CD010010CD010010CD010010CD01001037
:10015000CD010010CD010010CD010010CD01001027
:10016000CD010010CD010010CD010010CD01001017
:10017000CD010010CD010010CD010010CD01001007
:10018000CD010010CD010010CD010010CD010010F7
:10019000CD010010CD010010CD010010CD010010E7
:1001A000CD010010CD010010CD010010CD010010D7
:1001B000CD010010CD010010CD010010CD010010C7
:1001C00000BE00BE00BE00BE00BE00BEEFF3058054
:1001D000103800BEF2EB8871D49A0010F49A001027
:1001E0003802001090A31AE71E481F49086006C88D
:1001F00081F3088810471D480068002801D019487D
:10020000F3E70DA40ECC002902D000F012F8F9E7B4
:100210001749184A002000E001C19142FCD116495B
:100220008847164988471649884700BEFDE701C937
:1002300001C29A42FBD37047F49A0010C00000201C
:10024000281500205CAF00100000042000000420EE
:100250005CAF00100010042000100420000000001B
:10026000704700000000000008ED00E0000000D032
:1002700028150020F025002049430010310C001003
:1002800005430010F8B5C04610B5064C2378002B86
:1002900007D1054B002B02D0044800E000BF01232A
:1002A000237010BDB016002000000000FC8200107A
:1002B000044B10B5002B03D00349044800E000BFF5
:1002C00010BDC04600000000B4160020FC820010E3
:1002D00010B504001F2100F0F1FC002200212000D5
:1002E00000F006FD0021200000F01EFD10BDF0B55D
:1002F000DE4657464E464546E0B585B000900C00B8
:1003000015001F000EAB04CB93461B789A467B1A50
:10031000DA179B18534098468F422DDD0123029334
:100320005B465B1BD9175A184A400192DA17D31A59
:1003300053409946AB4523DD012303934346019A7D
:100340009E1A2AB221B25346009807F04DF9BC42DA
:100350001AD07300994506DCBC4217D0019AB61A30
:10036000029A944664449845EBDB5D450ED04644C2
:10037000039B9C466544E4E701235B420293CFE77D
:1003800001235B420393D9E75D45E2D105B0F0BCA0
:10039000BB46B246A946A046F0BDF0B5CE4647469C
:1003A00080B583B006000D0014000AAA02CA884670
:1003B00012789146EF18019200943B002200290028
:1003C000FFF795FFA0444B460193434600933B0043
:1003D000424629003000FFF78AFF4B46019343460F
:1003E00000932B00220029003000FFF780FF4B46CE
:1003F0000193434600933B00220039003000FFF791
:1004000076FF03B0C0BCB946B046F0BDF0B58BB0C6
:10041000041C0D00244B0593D6B2CBB2234A1068BE
:10042000002202920192009605AA214907F040FAA3
:100430000F352049201C02F064FD02F081FD070009
:1004400000240FE06300E3185B005B19DBB2174A7E
:1004500010680022029201920096174A144907F090
:1004600027FA0134042C11DCBC42EBDA6300E318F8
:100470005B005B19DBB20D4A106800220292019208
:1004800000960E4A0A4907F013FAEAE71E35EBB266
:10049000064A10680022029201920096084A044916
:1004A00007F006FA0BB0F0BD20205B00781F00209B
:1004B000208400100000A041D083001000830010B1
:1004C0000483001070B584B0184D286807F0DAF87E
:1004D000174E286800240294019400940023154AC2
:1004E000310007F0E5F92868029401940C23009389
:1004F0000023114A310007F0DBF9286802940194C7
:100500001823009300230D4A310007F0D1F9286821
:1005100002940194242300930023094A310007F038
:10052000C7F9286807F0C2F804B070BD781F002032
:100530002084001008830010148300102C83001006
:1005400040830010F0B5DE4657464E464546E0B5BE
:100550008DB0904D286807F095F88F4E28680024DC
:1005600002940194009400238C4A310007F0A0F912
:100570002868029401940C2700970023884A3100D0
:1005800007F096F9874B9946874B98464B461A6871
:100590005B68414604A803F073FE28680294019446
:1005A00000970A2304AA310007F082F97F4B9B468B
:1005B000286802940194009728235A46310007F0D6
:1005C00077F97B4F0C223C21381CFFF71FFF28686E
:1005D0000294019416239A4600930023754A310031
:1005E00007F066F94B461A685B68414604A803F0B9
:1005F00047FE286802940194534600930C3B04AADA
:10060000310007F055F9286802940194534600938D
:1006100012335A46310007F04BF916223C21381CA0
:10062000FFF7F4FE28680294019420239B46009370
:100630000023614A310007F03BF94B461A685B68BA
:10064000414604A803F01CFE2868029401945B460E
:100650000093163B04AA310007F02AF9574B9A463B
:100660002868029401945B46009308335246310097
:1006700007F01EF920223C21381CFFF7C7FE28682E
:10068000029401942A239B46009300234C4A310094
:1006900007F00EF94B461A685B68414604A803F060
:1006A000EFFD2868029401945B460093203B04AA66
:1006B000310007F0FDF82868029401945B4600932E
:1006C000023B5246310007F0F3F82A223C21381C45
:1006D000FFF79CFE28680294019434239B46009304
:1006E0000023384A310007F0E3F84B461A685B688C
:1006F000414604A803F0C4FD2868029401945B46B7
:1007000000932A3B04AA310007F0D2F8286802942B
:1007100001945B4600930C3B2B4A310007F0C8F86C
:1007200034223C21381CFFF771FE286802940194A2
:100730003E239B4600930023244A310007F0B8F87B
:100740004B461A685B68414604A803F099FD286887
:10075000029401945B460093343B04AA310007F0F5
:10076000A7F82868029401945B460093163B524612
:10077000310007F09DF83E223C21381CFFF746FE71
:10078000286806F093FF0DB0F0BCBB46B246A94600
:10079000A046F0BD781F0020208400104C8300107C
:1007A00058830010F80B00205C8300106483001055
:1007B0000000A041688300106C830010708300105B
:1007C00074830010788300107C83001080830010F5
:1007D00070B582B0174C2368591E174D2868012345
:1007E00001933F3300930B000022FFF780FD236845
:1007F000124A1268591E2868002601960F36009684
:10080000FFF775FD286806F051FF23687F2B08DC91
:100810000A4B0F221A60074A13680133136002B0B3
:1008200070BD044B00221A60034B186806F02AFFC3
:10083000EEE7C04690230020781F0020B42300205C
:1008400010B5444B1A6880235B015340E022D2016B
:100850001340414A1360414B04221A603D4B1B6810
:10086000DB05FBD53B494B681B041A0C0968802348
:100870009B014B40E021C9010B4037490B60374BCE
:1008800004211960334B1B68DB05FBD5314B5B68DA
:100890009BB2FA2189008B4218D90124304B1B6886
:1008A000042B15DC002B26DD2E498A422EDCFA2192
:1008B00089008A4216DA013B294A1360642001F05C
:1008C000EDF8294B186806F0DDFE0BE00024E5E7A3
:1008D000234B01221A60642001F0E0F8224B1868D3
:1008E00006F0D0FE002C03D1204B1B68012B18D042
:1008F0001E4B1C6010BD1A4B04221A60642001F0CC
:10090000CDF8194B186806F0BDFEEBE70133144A29
:100910001360642001F0C2F8134B186806F0B2FEB1
:10092000E0E70F4B1B68042B0CD0114A1360013B0E
:100930009B00104A9958104803F058FEC82001F057
:10094000ADF8D5E70A4B00221A600C4803F01EFEF2
:10095000F4E7C04600C0044000D0044000E004407A
:10096000180C0020B80B0000781F0020000C00209D
:10097000C0240020080C00209883001084830010FD
:10098000F0B58DB05E4C206806F07CFE2068002338
:100990000293019300935B4A5B4906F089FFFFF7DE
:1009A0004FFF002428E0E3B2554A1068002202926B
:1009B000019201330C225343DBB200930A23534AC2
:1009C000514906F075FF4E4B1868022C30DCA3002D
:1009D0004F4A9A58E4B200230293019301340C2346
:1009E0005C43E4B200941923474906F061FF494B88
:1009F0001B689D421ED02C00032C2ADC651C464B34
:100A00001B689D4203D0032CCDD1002BCBD1E3B288
:100A10003B4A106800220292019201330C22534398
:100A2000DBB200930A233D4A374906F041FFCAE78B
:100A30003B4ACFE76B005B199A00023A304B1868CB
:100A4000002301930C33009370330221FFF7A5FCC0
:100A5000D1E7304B1B68032B24DD2F4B1B68002B89
:100A600041DD294D264F3868002402940194382630
:100A7000009600232B4A290006F01AFF264B1B681C
:100A8000013B9B00224A9A583868029401940096D0
:100A90003C23290006F00CFF194B186806F006FEEF
:100AA0000DB0F0BD184D164F386800240294019423
:100AB0004026009600231C4A290006F0F9FE154B3B
:100AC0001A6893009B189A005032184904A803F042
:100AD000D7FB3868029401940096282304AA2900C1
:100AE00006F0E6FEB9E7064B18680023029301936F
:100AF0003833009300230E4A034906F0D9FECBE7B2
:100B0000781F0020B483001020840010C8830010D8
:100B1000080C0020180C0020C0240020C483001002
:100B2000AC830010D8830010CC830010D483001055
:100B3000E483001010B5254B1B68E022D20113405E
:100B4000234A1360234B04221A60204B1B68DB05E9
:100B5000FBD51E4B5B681B041B0C1F4A1268042A42
:100B600013DC002A1CDD1D498B4224DCFA2189009C
:100B70008B4214DA013A184B1A60642000F08EFFA1
:100B8000174B186806F07EFD09E0134B01221A602E
:100B9000642000F083FF124B186806F073FD10BD4F
:100BA0000D4B04221A60642000F078FF0C4B18688B
:100BB00006F068FDF3E70132074B1A60642000F08D
:100BC0006DFF074B186806F05DFDE8E700C00440C4
:100BD00000D0044000E00440040C0020B80B0000EA
:100BE000781F002010B5104B1B68032B10D006DCBB
:100BF000012B09D0022B0ED1FFF7A4FC07E0042B38
:100C000009D1FFF7BDFE02E00120FFF75BFC10BD3C
:100C1000FFF7DEFDFBE7054C206806F033FD20689A
:100C200006F044FDF3E7C046040C0020781F0020C6
:100C300070B503F0A7FC1E4D1E49280006F092FC7B
:100C40000321042000F03AF80321052000F036F8D3
:100C500000220121042000F04BF800220121052090
:100C600000F046F806F040FB1A20FFF731FB1B208E
:100C7000FFF72EFB1C20FFF72BFB002201211C207D
:100C800000F036F8142002F05FFA040000233C2242
:100C9000290006F045FD084B1C60200006F0F2FC20
:100CA000FFF748FFFFF79EFF0A2000F0F7FEF7E787
:100CB000D80C0020801A0600781F002010B5830091
:100CC000084A9A18126840245440C0222240064C18
:100CD000A44663441A60C000044B9C4660444160D3
:100CE00010BDC04604C0014004D001400040014096
:100CF00080000C4B9C46604400290ED00823002A3B
:100D00000DD004221343026853400C22134080226A
:100D1000520194466044036070470023EFE70022CD
:100D2000F0E7C04604C00140002906D08000064B11
:100D30009C4660444023036070478000034B9C4600
:100D4000604440230360F7E704E0014004F0014001
:100D500010B58023DB0518680205120D030B1B0478
:100D60001B0C09498A4203D1022B07D1000F10BD89
:100D7000064B074A2221074803F0C8FA064B044AEB
:100D80002321044803F0C2FA27090000008600105E
:100D900080860010248600106C8600100FB400B509
:100DA00083B0084803F0F2FB049B002B07D005A991
:100DB0000191180003F0FAFB034803F0E7FB012060
:100DC00003F082FA94860010A4860010EFF31080DE
:100DD00072B6034B1B68002BFBD0BFF35F8F7047CD
:100DE0002C0100D0BFF35F8F024B00221A6080F30A
:100DF000108870472C0100D0F8B506000C001500D3
:100E0000FFF7E4FFE308F718F15C07222240012313
:100E100093400B4205D1DBB20B433B70FFF7E2FF7F
:100E2000F8BD21002800FFF7B9FFF0B583B0060038
:100E3000019114001F00FFF7C9FF00E00134BC421C
:100E40000CD8E308F518F35C0721214001228A4001
:100E50001A42F3D1D2B21A432A7001E0012464424B
:100E6000FFF7C0FF002C02DB200003B0F0BD019BA8
:100E7000002BF9D00898FFF791FF0000054A107881
:100E8000431CDBB21370172B02D9130010221A7007
:100E90007047C0461C0C002000B583B00100044B15
:100EA00000931F2318220348FFF7BFFF03B000BDC4
:100EB000A8860010201F0020002307E0054A9A188A
:100EC0009200BFF35F8F0021116001331F2BF5D912
:100ED0007047C04640000034074B9B6810308000CC
:100EE0001950BFF35F8FBFF35F8F044B0021196070
:100EF00082F310887047C04600ED00E0240100D066
:100F00000048704700E400E010B5FFF7F9FF002348
:100F100002E0034A04C00133072BFAD910BDC046D2
:100F20008080808010B5091A081F0B4B9C466144D5
:100F30000A4A914208D8C30706D440104005400D24
:100F4000074B184380B210BD0221064B064AFF3101
:100F5000064803F0DBF9C046FC070000FE0F000066
:100F600000E0FFFFC4860010D4880010F486001053
:100F700001238340034A10681840431E9841C0B2C1
:100F80007047C04600E100E0002A05D0044BC022B3
:100F90005200995019607047014A8023D150FAE7F6
:100FA00000E100E010B50A001F2303400121994031
:100FB0004009FFF7E9FF10BD01238340014A136098
:100FC0007047C04600E200E0024B9B681030800092
:100FD000C058704700ED00E010B5FFF7F5FF00289E
:100FE00005D0054BC01A2F2803D8012010BD0020C2
:100FF000FCE70020FAE7C046200C002070B5040092
:101000000D00EFF3108672B60C4B1B68002BFBD063
:10101000BFF35F8F2000FFF7D7FF094B984201D045
:10102000A84205D1320029002000FFF755FF70BD0E
:10103000044B054AE121054803F068F9240100D07A
:10104000CD0100103C87001008890010F4860010C4
:10105000F0B5DE4657464E464546E0B589B0814676
:1010600001911500EFF3108B72B6754B1B68002BC6
:10107000FBD0BFF35F8F734B0027DF57002F3FDBA1
:101080007C00E419A400704824180622A2566D4B77
:101090001A706E4B9A684B4610339B00D358984693
:1010A0001B1A2F2B3AD96A4B984530D105AE694BA4
:1010B00033807B009A46D8198000634B98464044A1
:1010C00002306549FFF72EFF7080644BB380FF2329
:1010D000B371F571019B07935744BF0047440ECE8F
:1010E0000EC701231C43A0465A4641464846FFF717
:1010F000F3FE09B0F0BCBB46B246A946A046F0BD1F
:101100006E21574B574AFF31574803F0FFF8BA2179
:10111000564B544A4900544803F0F8F8012342461C
:101120009A439246101A0C2101F08AF800290FD137
:1011300053460026DA79AA4212D9062159560029C7
:101140000DDB4A00521892001E003F4B9B18F1E73E
:101150008621474B434AFF31434803F0D7F81E002E
:10116000002E3BD005AB434A1A80813A5A800623B1
:10117000F3560293002B17DA3F4805AB9A46988046
:10118000029A9A71DD71019A0792301D2100FFF7D2
:10119000C9FEB080B7717B00DB199B002A4FFF1896
:1011A000534607CB07C79FE77800C0198000264B3E
:1011B000C0180430321DB388D90A1C2907D15B0539
:1011C0005915023149005118FFF7ACFED5E710213F
:1011D0002A4B2B4AFF31244803F098F805AE1D4BEB
:1011E00033807B000293D8198000174A9046020092
:1011F00042440392901C1849FFF794FE7080039AB2
:10120000101D5146FFF78EFEB0801E4B52464146E0
:10121000521A524153431B0DB371F571019A079253
:10122000029B9C466744BF0047440ECE0EC7114B3D
:1012300052461380813B538001231C43A04653E751
:10124000240100D0E9250020200C002000ED00E062
:10125000CD01001000A1FFFF500C002001BDFFFFD9
:1012600074870010F0880010F48600109C8700102E
:10127000C48700100148000001BD0000488800102C
:10128000E0880010AAAA000070B5012101432C4B90
:10129000CB1A2F2B28D8EFF30583002B2AD0EFF39E
:1012A000108C72B6274A1268002AFBD0BFF35F8FFA
:1012B000254A0400224D641B64416243120D54B25E
:1012C000224A92689B00D2588A4219D00022032AEF
:1012D00030D853009B189B001949CB189B795BB2FF
:1012E000A3421DD00132F2E7194B1A4A1A491B4892
:1012F00003F00CF81A4B174A1A49184803F006F87D
:10130000124A92681849D150184B1A7882711C7091
:10131000BFF35F8F0B4B00221A608CF3108870BDF7
:101320000D005300991889006918FF268E71104A24
:101330008A80E9E70F4B074A0F49084802F0E6FFA9
:10134000200C0020240100D0AAAA000000ED00E03B
:1013500060880010B88800106E020000F48600104B
:101360008888001071020000CD010010E9250020DE
:1013700001BDFFFF948800108202000000B583B019
:101380000100064B0093052300220548FFF74DFDA1
:10139000002801DB1F23181A03B000BD9C88001031
:1013A000ED250020024B9C46614489000160704796
:1013B0004000003410B50400FFF760FD010020007C
:1013C000FFF7F0FFFF232371BFF35F8F10BD10B550
:1013D0000400FFF753FD01002000FFF7E3FFFF23A8
:1013E000237100236371BFF35F8F10BD10B50D4CE7
:1013F00009E00D4B0D4A1A210D4802F087FF20002D
:10140000FFF7D8FF08340B4B9C4209D22368002B0E
:10141000F5D0012BEDD12000FFF7D9FF0834F2E71A
:1014200010BDC0462015002024890010FC89001042
:101430004489001028150020034B9C466144890014
:101440000160BFF35F8F70474000003410B50400A7
:101450000120FFF721FD01002000FFF7EDFF10BD87
:1014600000040843704700000A4B1A68EFF310812C
:1014700072B61368002BFCD0BFF35F8F054B1B685F
:10148000BFF35F8F00221A6081F3108840BF0020F5
:1014900000217047C8250020F0B5DE4657464E466D
:1014A0004546E0B585B0EFF3058303221A40934625
:1014B0009200AE4BD35898461B785B4507D1012369
:1014C0005A4693401A000393A94B1A6012E1A94BA4
:1014D000A94A9221A94802F019FF5B004B44DB00A6
:1014E0004246526992469A4453469E68DF68A44831
:1014F00000F092FB801BB941002900DA04E1002FC3
:1015000060DB53461C699F4B9C4244D043460820F5
:10151000185E5346598889B2FFF7A2FF53465969AE
:10152000A04704000D0023002B434BD0002D3CDAD4
:1015300030003900001BA9410090019153460098EA
:1015400001999860D96000255D5F002D00DADBE02D
:1015500043465C696B005B19DB00E3189A68DB6843
:10156000801A9941002900DACEE043461D814746A2
:1015700008370023FE5E002E1FDB7500AD19ED005D
:101580006519009A019BA868E968121A8B41002B23
:1015900013DB2F00EDE753465C6920002369984771
:1015A00000280FD065682468BDE7754800F034FB5B
:1015B0000019694100900191C0E753461E804B46D7
:1015C0003B80A1E0534600229B5E42461381126994
:1015D000EFF3108372B611680029FCD0BFF35F8F60
:1015E00042460221525E51460A8042464946518097
:1015F0001269BFF35F8F0021116083F3108883E0CD
:1016000043461A69EFF3108172B61368002BFCD0C1
:10161000BFF35F8F43469B881BB2994601235B4211
:10162000424693801369BFF35F8F00221A6081F3F3
:10163000108818E026000023F55E002D0BDB6C00FF
:101640006419E4003C19009A019BA068E168121A31
:101650008B41002BEEDA4B463380634600229B5EC3
:10166000994663461D804B46002B53DB43465F691A
:101670004B465B004B44DB009C46BC446346DC6845
:101680009B680093019446460836D4E700234246FF
:1016900093714146083143460820185E11E001224B
:1016A0005242D317A260E360434608229B5E834206
:1016B00006D00D80434608229B5E23804346188156
:1016C0002800431C2AD043465A6943001B18DB00FC
:1016D000D418D55E63881BB2002BE0DB2100EFE756
:1016E0006B1C2BD1264800F097FA241A8D41002D4F
:1016F00034DC31D0224B039A5A63434608229B5E66
:101700009946002B00DBE8E643469B881BB2002B82
:1017100000DB75E743469B79002BB7D1434608228F
:101720009A5E002A1ADB53009B18DB00424652697E
:10173000944663449C68DD68631CD1D0104B996A61
:10174000601A5A4604329200D3585B1A9842C9D2A2
:1017500013000B4A9C50C5E7002CCBD040BF05B00E
:10176000F0BCBB46B246A946A046F0BDA42300206B
:101770003C700540108A0010088B00103C8A001055
:101780000040054099140010F8B5CE46474680B594
:101790000600884691461F00C160FFF76FFB1B4B98
:1017A0009C466044800030614B463370BBB273810D
:1017B000D022120612787270012252423281B28017
:1017C0009B187380002406E0631E65002D19ED0050
:1017D000726953530134BC42F6D34B469A000C4B0A
:1017E000D65001244B469C4043461C62094948465A
:1017F000FFF704FC01214846FFF7D4FB06494144AA
:101800000C60C0BCB946B046F8BDC04640000034CC
:10181000A4230020991400103820000010B5064BB6
:101820001B69002B01D0044810BD044B044A6521FC
:10183000044802F06BFDC046680C00207C8A001052
:10184000F08A00103C8A0010F0B5C64600B50400CE
:101850000069EFF3108C72B601680029FCD0BFF369
:101860005F8F0221665E7500AD19ED0061698846E3
:101870004544002E02DB0020295E61802169BFF310
:101880005F8F002008608CF31088002E2EDB0699F5
:10189000296107996961AA60EB606B8801335B0479
:1018A000590C002B00D1012169803000FFF7D8FDD1
:1018B0002269EFF3108172B61368002BFCD0BFF3DE
:1018C0005F8FA3882B80A6802369BFF35F8F0022E0
:1018D0001A6081F31088E368217801328A40054953
:1018E0008C4663441A6080BCB846F0BD012040427B
:1018F000F9E7C0463C20000070B582B00600140035
:101900001D0008AB1B78002B07D100F09BF92200CB
:101910002B00121A8B41002B0ADB079B0193069BBD
:10192000009322002B003000FFF78EFF02B070BD45
:101930000020FBE710B5030008145A8990422FDA03
:1019400042001218D2005869844662441C69EFF3C1
:10195000108C72B620680028FCD0BFF35F8F5088CF
:1019600080B20904090C884212D000201A69BFF322
:101970005F8F002111608CF31088002811D0DA6885
:101980001B7801319940074B9C466244116008E086
:101990000549084380B2508001229A710120E5E791
:1019A000002010BD3C2000000080FFFF4078704701
:1019B000F0B585B006000F00EFF30583002B1AD1B8
:1019C00006246442E517A4197D418D4202D803D153
:1019D000844201D90024002500F034F922002B00B4
:1019E000121A8B41002B0BDC08D03000390000F0BC
:1019F00031F905B0F0BD1C48FFF7D0F9002AF4D04A
:101A0000FFF70CFF002302930193184B0093220071
:101A10002B00FFF771FF002818DAE6E7002300E04B
:101A20000023002BE1D1124B1A68EFF3108172B63C
:101A30001368002BFCD0BFF35F8F0D4B1B68BFF307
:101A40005F8F00221A6081F3108820BF094B5B6A08
:101A50009D42E5D80749896AA14203D29D42DDD063
:101A60000123DEE70123DCE7A08A001069140010DF
:101A7000C82500200040054070B504000D0000F0AE
:101A8000E1F800196941002902DBFFF791FF70BD01
:101A9000012040420049F8E7FFFFFF7F10B5FA221E
:101AA00092000023002101F005FAFFF7E5FF10BDC9
:101AB00070B584B005000C00EFF30583002B12D045
:101AC0003E4B5B6A8B4209D33C4A926A824208D2FF
:101AD0008B4201D0012002E0002000E0002004B091
:101AE00070BD0120FBE7FFF799FEC16803788A6AA1
:101AF0002E00A81A04339B005B589B1A984212D3FD
:101B000020BF2E4B5B6A9C4209D82C4A926A9542B0
:101B100007D99C4201D00120E1E70020DFE7002047
:101B2000DDE70120DBE7FFF779FE00230293019355
:101B3000234B00932A002300FFF7DEFE051E0BDD7A
:101B40001E4B5B6A9C421BD81C4A926A96422CD957
:101B50009C4213D0012314E0184B5B6A9C4209D8C5
:101B6000164A926A964207D99C4201D00120B6E7F4
:101B70000020B4E70020B2E70120B0E7002300E036
:101B80000023002B00D120BFFFF748FE2900FFF7FC
:101B9000D1FE0A4B5B6A9C420BD8084A926A964275
:101BA00009D99C4203D0012099E70123E9E70020ED
:101BB00095E7002093E7012091E7C04600400540EB
:101BC00069140010004870470040054010B50B4BE9
:101BD0001B69002B04D00A210948FFF7E3FB10BD65
:101BE000FFF7F0FF0400032100F00CF8102303229C
:101BF00021000248FFF7C8FDEDE7C046680C002051
:101C0000C825002010B5024A0248FFF7F5F810BDBC
:101C1000208B0010241F00200200436A906A1900E4
:101C2000536A9942FAD17047416A00E0416A994289
:101C3000FCD300E0416A994202D1816A9142F9D312
:101C40007047000010B50248FFF7E6FF10BDC04620
:101C50000040054010B502000B000248FFF7E4FF0A
:101C600010BDC04600400540F8B5D646474680B591
:101C700006000D001700984644002418A400294BC4
:101C80009C4664446368089A934200D26260331FA2
:101C9000DBB29A46012B2ED980221201C0239B0170
:101CA000E3181A60B300204A9958002907D05069F8
:101CB00000F0C6FA431C5800C0180338FDD27F015B
:101CC00022685740E022174080235B01E3181F6021
:101CD0005246012A1AD980239B01E318802212015F
:101CE0001A60089B6360B6000F4B4246F250C0BCBE
:101CF000BA46B046F8BD012DCED10322C0239B01C8
:101D0000E3181A60A368DB07FCD5D8E721686940AF
:101D100003220A401A60A3680122AA401A42FAD09C
:101D2000D9E7C04600800040281F0020F0B583B0EE
:101D300005000E0017001800089900F081FA030052
:101D4000089A140200943A0031002800FFF78CFF33
:101D500003B0F0BD10B582B0802464000094FFF79A
:101D600083FF02B010BD00008000014BC0587047D7
:101D7000281F0020F0B5C64600B504000E0017006D
:101D80001D00364800F05CFA8046354BFA18354B9A
:101D90009A4238D80100380000F052FA0200103A96
:101DA00098235B009A4234D86B1E062B37D8069BCB
:101DB000013B062B33D83F09474536D32D04069BFC
:101DC0001A0315432368002B35DB274B9C4243D075
:101DD0000C2301229A40254B1A60254B1A60254B93
:101DE0001B6811009943FAD12660A060224BE218CB
:101DF000212313602368002BFCDAE56008231360BD
:101E000080BCB846F0BD1D4B1D4A11211D4802F093
:101E10007DFA1D4B1A4A19211A4802F077FA1B4B1A
:101E2000174A1C21174802F071FA194B144A232152
:101E3000144802F06BFA22683F231340B342C4D126
:101E4000A3681B051B0D8342BFD1E368EE22D202BB
:101E50001340AB42B9D1D3E70D23BAE7001BB7005B
:101E600080E84BD380F8A93200C0024000E0004077
:101E700000F0004008C0004004300000448B001017
:101E8000608C0010948B0010DC8B0010F88B00101D
:101E9000448C0010024B1A68024B5A607047C046CF
:101EA000942300200080054010B5184B8022D205F5
:101EB0001A60174B174A1A6000290AD0164BE02205
:101EC000D2041A60002809D1134B802212061A602E
:101ED00010BD0E4BE022D2041A60F3E74201121A41
:101EE00093001B18DB000D4A13605B001360802217
:101EF0005204934202D3094B094A1A60FFF7CAFF02
:101F0000054B8022D2051A60E2E7C04600B00540CA
:101F100008200140FCFF010000A0054094230020A0
:101F2000FFFFFF0010B5030010000C4A8024E405F9
:101F30001460002B0DD001221343094A094CD461CF
:101F4000094C5C401462516293620021FFF7ACFFC0
:101F500010BD034B0022DA61F7E7C04600B0054030
:101F600000800540D3C007B02D3FF84F80239B0071
:101F70000B43014AD36270470080054010B5010051
:101F800018231B8814221088984710BD10B5010033
:101F900018231B8816221088984710BDF0B5C64636
:101FA00000B507000E0000250123984600E001352A
:101FB000B5420AD2AC003C192068FFF7DFFF206071
:101FC0000028F4D100239846F1E7404680BCB8468B
:101FD000F0BD000070B504000D000648FFF7CEFF0D
:101FE0000300002C03DB0120A040290098470020BB
:101FF000FBE7C04655420000064BAA2212011A60B8
:102000002F22DA60044B054A1A60024B5B68002BF2
:10201000FBDA7047004002400060024000B0FA0066
:1020200010B5040001E008CC9847024B9C42FAD35B
:1020300010BDC046F48200107047000010B5024881
:10204000FFF7EEFF10BDC046B8820010054B064AF0
:102050001A60064B064A1A60064B1A68044B9343F3
:10206000FAD1704700E00040BFCDFBFE00F0004019
:10207000FE7F3C0008C00040044BDB6C002B03D10A
:10208000034B8022D2021A607047C04600001150F4
:102090004C201150044B054A1A60054B1B68DB436A
:1020A000DB01FAD17047C04600F00040FFFFFF019E
:1020B00008C00040034B40229A675A671A67DA66E5
:1020C0007047C04600F0014010B5FEF7F5FE10BDA8
:1020D00070B5044CA168044DC022280001F02EF810
:1020E000A56070BD00ED00E00000002070B5042088
:1020F000FFF73AFE064900F0A3F805000024002C83
:1021000000DD70BDE0B22900FFF730FF0134F6E7D3
:1021100040420F0030B583B0274B00229A67FFF78B
:102120006BFF264B01221A60234B5B6C012BFBD10A
:10213000234B03221A60204B9B6B012BFBD10133F5
:10214000009304331F4A01211F48FFF713FE0523A4
:1021500000931E4A01211E48FFF70CFE1D4B002272
:1021600002210420FFF7F6FD1B4D2B000022012168
:102170000520FFF7EFFD194C230000220021072066
:10218000FFF7E8FD2300002200210820FFF7E2FD11
:102190008023DB0000932300002200210920FFF7A9
:1021A000C5FD2B00002200210620FFF7D3FDFFF71D
:1021B0009DFF03B030BDC046008000403CB00040F1
:1021C00030B00040002F685900800240008C8647E4
:1021D00000C00240001BB70040597307006CDC02CE
:1021E00001480421014B1847800C00209D1F00105E
:1021F000124A936F9B0815D29066D166002905D0CC
:10220000FFE7FFE7FFE7516F106F704704B58021CC
:102210000906C2175140002800D0C84305F0FCFF52
:10222000002104BDF0B5146E556E576F166FFFF7A1
:10223000E3FF1466556657671667F0BD000000D0CF
:10224000114A936F9B0813D210665166002905D07E
:10225000FFE7FFE7FFE7516F106F704704B50028F5
:1022600001D00020C04305F0D7FF002104BDC046C7
:10227000F0B5146E556E576F166FFFF7E5FF1466D5
:10228000556657671667F0BD000000D094464A4A6D
:10229000926F9208624601D228E0C046F0B5464EE1
:1022A000346E756E776F366F00F020F89446424AB0
:1022B00014665566576716676246F0BD94463E4AF7
:1022C000926F9208624601D254E0C046F0B53A4E91
:1022D000346E756E776F366F00F04CF89446364A60
:1022E00014665566576716676246F0BD002B24DBFF
:1022F00011D000293EDA00B5C943404200D1013176
:1023000000F038F8C943404200D10131DB4352426A
:1023100000D1013300BD002AEBD1002801D10029F2
:1023200005D00020C90FC90701D1C043410800B53D
:1023300005F06AFF0022002300BD00B500290ADB7A
:10234000DB43524200D1013300F014F8C94340424C
:1023500000D1013100BDC943404200D10131DB430E
:10236000524200D1013300F005F8DB43524200D164
:10237000013300BD002923D1002B18D1002A0CD035
:10238000BC460D4F38667A6600210023FFE7FFE761
:10239000FFE77A6F386F67467047002801D007481B
:1023A000010000B505F030FF0022002300BD02004F
:1023B0000B00002000217047000000D0FFFFFFFF4E
:1023C000002B00D0BFE0130C28D1002AE7D080B446
:1023D000114F39667A66FFE7FFE730B4040C7B6F74
:1023E000396F1B0423433B667A66FFE7FFE7FFE78D
:1023F000C04684B27B6F3D6F1B0423433B667A6605
:10240000FFE7FFE7C04600232C042D0C7A6F386FDE
:1024100000196941B0BC7047000000D0F0B5944687
:102420000025140E01D112020835140F01D112013A
:102430000435940F01D192000235D40F01D152001E
:102440000135D40B0134254F7C66254C3C660E0CBF
:1024500093B2FFE7FFE7FFE73C6F6643360C770375
:10246000BE467343DF0B5B04C01AB941130C7343C0
:10247000DB18C91ACE086643360CB64493B27343D0
:102480001F0F1B01C01AB941130C73431F0B1B050F
:10249000C01AB941860D8F023E436643360C092DA2
:1024A00024DB520A7243801A7703460A6643360CCD
:1024B00016235B1BDE40DF40BF1964466643821B68
:1024C0007046043506330100D940A840C01900D336
:1024D0000131A24206D20023F0BD0000000000D06E
:1024E000FFFFFFFF121B0130F3D3F1E709277F1B2A
:1024F000FE406446A2B27243801A00D20139220C17
:102500007243130C1204821A99410B007046043571
:1025100013370100F940A840801900D30131002B86
:1025200002D1A2420AD2F0BD013000D30131121B08
:10253000FAD2013BF8D1A24200D2F0BD013000D363
:102540000131121BF7E7F0B51C0C00D080E00CB491
:1025500000251C0A04D11B02160E33431202083553
:102560001C0B04D11B01160F3343120104359C0BC5
:1025700004D19B00960F334392000235DC0B02D14D
:1025800092185B4101351C00971864410134464F95
:102590007C66464C3C660E0CFFE7FFE7FFE7C04653
:1025A0003C6F6643360C7703BE4697B27743C01B39
:1025B00000D20139C01B00D201399FB27743C91B39
:1025C000C91B170C77437E04FF0B801BB941CE0853
:1025D0006643360C0C2D33DBB644120B1F053A4311
:1025E0001B0B97B27743C01B00D201399FB27743D0
:1025F000C91B170C77433E043F0C801BB941860D65
:102600008F023E43664329277F1BFE400C3D7746E1
:10261000AF40BF1930BCA2B2ABB272437343801A51
:102620009941220C7243130C1204801A9941020042
:102630000B000137001BA941F9D2781E0021F0BD23
:102640000C277F1BFE4077467F0BAF40FF19E0E76A
:1026500000245D1C07D0144F7D663966FFE7FFE755
:10266000FFE7FFE73C6F95B29EB265436643401BB0
:10267000B141150C1E0C6543664336042F0C3E43D6
:102680002D04401BB141994204D202000B002000EE
:102690000021F0BD01D19042F7D3801A9941013455
:1026A0009942F2D3F6E70000000000D0FFFFFFFFE1
:1026B00048404140484018B41B4B5B68FC460193BE
:1026C00008BD04DF8729001018B4174B1B68FC46AF
:1026D000019308BD00DF912900109446134A926FC0
:1026E000920809D2624618B40F4BDB68FC4601938E
:1026F00008BD0CDF492C00100C4AF0B5146E556E65
:10270000576F166F6246FFF7EEFF084A146655666C
:1027100057671667F0BD18B4034B9B68FC460193DE
:1027200008BD08DFED2A0010C0230020000000D003
:10273000FFB550404240504059404B40594000E0A6
:10274000FFB5154F4C00640D03D0BC4204D10C03FF
:1027500014D80020090D09055C00640D03D0BC42AB
:1027600004D11C030AD800221B0D1B0501264B4077
:1027700009D44B4003D58B4200D18242FFBD994220
:10278000FCD19042FFBD0B43DB1803431343F5D04C
:10279000C9434918FFBD0000FF07000000B5FFF75F
:1027A000CFFF804100BDC04600B5FFF7C9FF01D98A
:1027B000002000BD012000BD00B5FFF7B9FF01D921
:1027C000002000BD012000BD00B5FFF7B1FF804132
:1027D00000BD012040054A00121804D85A00121802
:1027E00001D8002070470120704700000021002818
:1027F00005D17047C1174840401AFAD0C90713B530
:10280000064B1B6898470CBC441CA2401005120BD9
:102810000349091B09051943114310BDC4240020B5
:102820001F04000010B54C00620D8023D218DB009D
:10283000D21A5B057E2A10DD9E3A13DACC17090303
:10284000490819435242D140640001341532202A0C
:1028500005DAD0400843604310BD002010BD084693
:10286000604310BDC80FC018013810BD18B4044B28
:102870005B6AFC46019308BD24DFF92D00100000BF
:10288000C023002070B513231C78012C14D0012C18
:1028900014DC022C02DC1F4A1F4B9A641F48FFF70E
:1028A0006DFB1F4B186070BD99001A481A4A88507A
:1028B00001331F2BF8D9EAE70023FAE71948FFF79D
:1028C00065FB05001848FFF761FB023803789B00A1
:1028D0007F2B19DD802229000F4800F02FFC022CED
:1028E000D7D1124B1A88B5231B029A4209D1104B3B
:1028F0001A88104B9A4204D10F4B1A880F4B9A42F8
:10290000C7D00020FEF74AFA0D4B0E4A33210E487D
:1029100001F0FCFC4D290010C02300204C330000C6
:10292000C4240020534400005346000054380000E3
:10293000D8380000494600009C3800005946000085
:102940006C8C0010088D0010B08C001007B560462C
:10295000002800D100BE01880A0A0230DF2AFAD11D
:10296000C9B2820804D3028840880004104300E002
:102970000068024A5050039007BD0000C0230020A9
:102980000FB403BC0CBCF0B50124E407634000E0C5
:10299000F0B50C0DCF0F661E3605891B640503D3F9
:1029A000C943404200D30131640D03D0661CF60ACE
:1029B00007D0E41B00207F00791C89078912803C26
:1029C00024031D0DDF0F6E1E36059B1B6D0503D303
:1029D000DB43524200D301336D0D03D06E1CF60A67
:1029E00007D0ED1B00227F007B1C9B079B12803DC4
:1029F0002D032F1B661B58D4A446202E46DA203701
:102A00001400BC401D00BD40F24033412A438018F1
:102A10005941CB0F05D0C943C04300226442504105
:102A2000514162464D0D28D10D0D07D100281FD010
:102A3000241940414941013A0D0DF9D0640006D3F3
:102A4000013000D30131002C01D140084000013A8F
:102A50000BD4941CE40A04D112051144DB07194479
:102A6000F0BDD907204B194300E0D9070020F0BD85
:102A70000029DDD1002CDBD1F0BD0132C6074008B2
:102A8000CD0728434908002EE1D0D9E73C2E29DAAA
:102A9000203E40371400BC4000D00124F2401443D3
:102AA0001A00BB401C43D317ACE7AC46202F08DA12
:102AB00020360400B4400D00B540F84039412843A9
:102AC000A5E73C2F0CDA203F40360400B44000D08C
:102AD0000124F84004430800B1400C43C117EAE761
:102AE00010001900002494E70000F07FF0B50C0DF1
:102AF000661E3605891BE60A6405640D02D0651C56
:102B0000ED0A04D0002001210905803C2403A446DD
:102B10001C0D671E3F05DB1BE70A6405640D02D030
:102B2000651CED0A04D0002201231B05803C240310
:102B30007740644497B484B296B27443070C7E43E2
:102B4000150C6F4380B26843361802D3012000048D
:102B50003F183004350C00197D41844688B29AB282
:102B600050430C0C62431F0C7C438EB27E4392197F
:102B700002D301263604A4191604170C361867412F
:102B800001BC81B29AB25143040C62431B0C5C43FA
:102B900080B25843121802D30120000424181004F4
:102BA000130C401863412D185E410020474106BCBC
:102BB00088B293B258430C0C6343120C544389B24D
:102BC00051435B1802D301210904641819041A0C3B
:102BD000091862416D1856410020474118BCF9029E
:102BE000720D1143F0026A0D1043ED020A0D03D17C
:102BF0006D1940414941013B124E9B1B7600B34287
:102C00000ED26D0007D30130002671416646354370
:102C100001D1400840001B05C918E4072144F0BD5C
:102C20000BDA013306D1013004D101314F0D01D04F
:102C30004908F2E7E1070020F0BD01363105002028
:102C4000EBE70000FF030000F0B51C0D671E3F0519
:102C5000DB1BE70A6405640D02D0661CF60A04D08B
:102C6000002201231B05803C2403D0252D060026CD
:102C7000F6432E661E096E66CE0FF619B44649005D
:102C80004F0D02D07E1CF60A03D000200021403FE9
:102C90003F033E1BB600B444013F7F05C91B4908F2
:102CA0002E6F013676089C02950D25437543ED1372
:102CB0007543AD1301356D10F603761B0CB4CC02D1
:102CC000450D2C43A2B2B3B25A43270C7B43350CBB
:102CD0006F43A4B26C431B1902D3012424043F198F
:102CE0001C041D0CA4187D4124196D41009A91B259
:102CF000ACB26143170C7C432B0C5F4392B25A4336
:102D0000A41802D301221204BF182204230C521863
:102D10007B41019C6C431B19520ED9010A434401AB
:102D2000A01A81B2B2B2514303145A43360C734312
:102D300087B27743D617D21900277E4136049B19F4
:102D40001704160C7F185E417316ED18F301002668
:102D500080337541A90F06D16400690AE8055B0A52
:102D6000184309D22FE00422944480337541A90A04
:102D7000A8059B0A184326D3404149412404009AE0
:102D8000019B0D005543641B4343E41A95B286B280
:102D90007543170C7E43030C5F4392B25A43B61837
:102DA00002D301221204BF183204330C52197B41A2
:102DB00052429C41002C02D4002201305141400873
:102DC000CA071043490802B06246D7079210084B61
:102DD000D218084B9A4203D212058918C919F0BDBE
:102DE0000020002A01DC3900F0BD01331905F5E7A8
:102DF000FD030000FE070000002200B5203200F0B5
:102E000004F8080000BD000000220B150AD410B51C
:102E1000944600F031F81414013400DA0021CB1785
:102E2000144C20470020002170476244343A0CD4EF
:102E30000C2A07DA04009140904052422032D440DC
:102E4000214310BDD843D94310BD203207D40C46CE
:102E50009440524220321141D040204310BD08001E
:102E6000C917203203D452422032104110BD18003D
:102E7000190010BD2B2E00100A0DCC0F531E1B0580
:102E8000C91A520503D3C943404200D30131520D40
:102E900003D0531CDB0A07D0121B00206400611C06
:102EA00089078912803A1203014BD21A7047000039
:102EB000FF03000051434343C9188C46110C83B2F1
:102EC0004B4310B4040C614392B280B2504362434E
:102ED0001C041B0C001910BC59411304120CC0181F
:102EE0005141614470470000484041404840002340
:102EF0009C46114B5B68184700239C460E4B1B6891
:102F000018470E4A936F9B0804D200239C460A4B35
:102F1000DB681847F0B5146E556E576F166FFFF7E4
:102F2000F4FF064A1466556657671667F0BD00231E
:102F30009C46014B9B681847C8240020000000D025
:102F400041000A0E80231B067E2A0BDD9E3A0BDA17
:102F5000C1174002400818435242D0404900013195
:102F60004843704700207047C00FC01801387047B1
:102F7000C0420DD300B540004008002100F012F817
:102F8000002801D4404200BD8020000600BD0000A2
:102F9000034BDB69FC4618471CDFE53000100000DE
:102FA000C824002000239C46014B5B6A18470000A0
:102FB000C824002070B513231D782A48FEF7E6FFC9
:102FC0000400012D11D0012D09DDA31E1B789B00EB
:102FD0007F2B40DD80222100234800F0AFF82348FA
:102FE000FEF7CCFF224B186070BD542201001E4832
:102FF00000F0A4F81F4B1A881F4B9A421CD1A7233C
:103000009B011A881D4B9A4216D11D4B1A881D4BE5
:103010009A4211D11C4B1A8894239B019A420BD1DE
:103020001A4B1A881A4B9A4206D11A4B1A681A4B35
:103030009A4201D1152307E01848FDF7AFFE990029
:103040001748094A885001331F2BF8D9144A064BF8
:103050001A62DA61B7E7134B134A4221134801F0B1
:1030600055F9C04653460000C82400204C330000E8
:10307000C4240020EE290000C40F0000C20D00008F
:10308000962B0000C0B50000182B0000CC2A0000D1
:1030900010B50000FC2C000051ED8764B4900010C6
:1030A000B13000101C8D0010A88D0010508D001044
:1030B00007B56046002800D100BE01880A0A023028
:1030C000DF2AFAD1C9B2820804D3028840880004FA
:1030D000104300E00068024A5050039007BD000012
:1030E000C82400200021C2158032803201D0024A5B
:1030F0001047002070470000CD2A000010B50400E2
:1031000004F020FC002804D00419034B9C4200D892
:1031100010BD0248FDF742FE00000420BC8D0010E7
:1031200001480421014B1847900C00209D1F0010FE
:10313000014B1B6818470000900C0020014B5B6896
:1031400018470000900C002010B5FFF7D7FF10BD06
:1031500010B5FFF7D3FF10BD9A4200D288547047D4
:10316000704710B5002802D00B684968984710BD19
:103170000100002007E083001B185B00501C086062
:103180001078C01830380A681378303BDBB2092B4E
:10319000F1D97047F0B5DE4657464E464546E0B594
:1031A00083B093461F000C9B9A460D9C0E9B99463C
:1031B0000F9B9B0703D0B8460F00060022E0019248
:1031C000A34688464E46B9460700B44207D2551C6E
:1031D0004B4641462020B84701342A00F5E73D0020
:1031E0004F465C46019B9B46B1464646B846370073
:1031F0002E0007E0013C551C5346185D434639003C
:10320000B0472A00002CF5D135003E0047460F9B01
:103210009B0707D4100003B0F0BCBB46B246A946DA
:10322000A046F0BDB0464E46B9462F005D46531B42
:10323000B342EFD2541C4B4641462020B8472200EF
:10324000F5E7F0B5CE46474680B585B0944698463A
:103250000C9D0D9C0EAB1B789946109A119B129EEB
:10326000B7071CD4002B0CD0F7070AD54F46002F08
:1032700002D10C37374204D0013B02E030272F55F2
:103280000134944201D21F2CF8D9F70707D59C428C
:1032900005D21F2C03D830272F550134F5E7F70648
:1032A00015D5770505D4002C03D0944224D09C4238
:1032B00022D00F9A102A2BD00F9A102A30D00F9AB2
:1032C000022A35D01F2C02D830222A5501341F2C57
:1032D00005D84A46002A31D02D222A5501340396BA
:1032E00002930194009543466246FFF753FF05B0F1
:1032F000C0BCB946B046F0BD621E012C06D00F9F7F
:10330000102F01D01400D4E7023CD2E71400D0E71C
:10331000B206D1D41F2CCFD878222A550134D1E758
:10332000B206CCD51F2CCAD858222A550134C9E779
:103330001F2CC7D860322A550134C3E7720703D562
:103340002B222A550134CAE73207C8D520222A5534
:103350000134C4E7F0B5DE4657464E464546E0B573
:1033600093B081468A46089209931CAB10CB1B7818
:103370009B461E9D219B9846002C03D1102342465C
:103380009A4390468023DB0046461E4042461A423E
:1033900012D0002C22D000260EE03033D9B2771C98
:1033A0000AAB995529002000FEF74AFFAC4216D31C
:1033B0001F2F14D83E00040029002000FEF740FF14
:1033C000CBB2092BE9D94246920605D54121C9184D
:1033D000C9B20A39C9B2E2E76121F8E727004346DA
:1033E0000693209B05931F9B049303955B460293D2
:1033F00001970AAB0093099B089A51464846FFF78C
:1034000020FF13B0F0BCBB46B246A946A046F0BDB3
:10341000F0B5DE4657464E464546E0B595B00890B5
:1034200009910A920B931E9E1F9C20AB1B789B4612
:10343000229B9946239D269B9A463300234303D122
:10344000103352469A4392468023DB0057461F4072
:1034500052461A4219D0330023432DD0002714E0DE
:103460003033DAB27B1C98460CABDA554A462B0057
:1034700030002100FEF722FFA5421FD819D0434695
:103480001F2B1BD8474606000C004A462B00300075
:103490002100FEF713FFD3B2092BE1D95246920661
:1034A00005D54122D218D2B20A3AD2B2DAE7612265
:1034B000F8E7B145E3D901E0002398465346069367
:1034C000259B0593249B04934B4603935B460293F1
:1034D000434601930CAB00930B9B0A9A09990898F9
:1034E000FFF7AFFE15B0F0BCBB46B246A946A046FA
:1034F000F0BD0000F0B5DE4657464E464546E0B505
:1035000091B083468A460C9298461A9C08941B9D5B
:10351000099522002B0020002900FFF75AF9002806
:1035200000D0E5E001225242D74B20002900FFF7EE
:103530004BF9002800D0DBE001225242D34B20009F
:103540002900FFF72BF9002800D0D1E0002200234A
:10355000089E3000099D2900FFF720F9002800D0BF
:10356000DDE008980999069007918023DB001E9AF8
:103570001A400D921E9A1A4201D106231C930698F6
:10358000079904000D000A000600024300D1D1E0B3
:10359000080D4005400DBE4CA44660440A03120BC2
:1035A000BC4B13431F00FFF725F9BB4ABB4BFFF78A
:1035B000B2F8BB4ABB4BFFF787F804000D000022AE
:1035C000B94B30003900FFF776F8B84AB84BFFF72F
:1035D000A2F802000B0020002900FFF775F8FFF7A2
:1035E00021F98146FFF706F904000D00B14AB24BFC
:1035F000FFF791F80022B14BFFF766F8FFF712F9D9
:103600000600AF4AAF4B20002900FFF784F8040002
:103610000D003000FFF7EEF8AB4AAC4BFFF77BF83C
:1036200002000B0020002900FFF745F804000D0000
:1036300002000B00FFF76FF80A900B91A44BF318F0
:1036400000261F0522002B0020002900FFF73CF870
:103650000E900F9122002B0000208021C905FFF75A
:103660002AF804000D0000229A4B0A980B99FFF7E4
:1036700034F80022984BFFF727F802000B000A9855
:103680000B99FFF72AF80022944BFFF71DF8020070
:103690000B000A980B99FFF720F802000B0020009E
:1036A0002900FFF711F802000B000E980F99FFF7A1
:1036B00014F80022774BFFF707F832003B00FFF7C2
:1036C0002AF806000F0004000D00069A079BFFF77A
:1036D0007BF8002830D001235B429C46E144002265
:1036E0007D4B30003900FEF7F8FF04000D0023E0A9
:1036F0001E9B04931D9B03931C9B0293089A099B9A
:103700000092019343460C9A5146584600F0FCF84B
:1037100011B0F0BCBB46B246A946A046F0BD00239E
:10372000002406930794069680231B069C46654456
:1037300007951AE7002399464B466333C62B1ED8DC
:1037400004261E9B1B0526D52B0023430FD0644A5D
:10375000644B06980799FFF72FF8002879D00022CC
:10376000614B06980799FFF719F8002871D01C9B48
:103770004B4506DD4A46981A431E1C9303E0052676
:10378000DFE700231C938023DB001E9A1A431E925E
:103790000026002399461D9B9E4264D29F1B022354
:1037A0001E9A1A400A921E9A134202D0002E00D08E
:1037B00000274B46002B07D022002B0006980799C4
:1037C000FEF78BFF069007910022002308980999C5
:1037D000FEF7E4FF002848D1444B1E9A134004939F
:1037E00003971C9B0293069B079C009301944346FE
:1037F0000C9A5146584600F087F8002E00D187E712
:103800001E9B9B063DD54525441C43460200514660
:103810002800D8474B46DA179B18534005220592DB
:10382000013E0496002203920A3202924A46D00FC9
:10383000019000934346220051465846FFF78AFD07
:103840000A9B002B00D163E702005F460C9E1D9D82
:1038500054E01C9B002B9ED00D9B002B9BD01C9BEF
:10386000013B1C9397E7002799E7069C079D2200E0
:10387000290080200006844661440B0006920793CD
:10388000AAE76525C0E7C046FFFFEF7FFFFFEFFF18
:1038900001FCFFFF0000F03FFB799F501344D33F32
:1038A000B3C8608B288AC63F0000F83F61436F634E
:1038B000A787D23F71A379094F930A400000E03FE8
:1038C0001655B5BBB16B0240EF39FAFE422EE63F0A
:1038D000FF03000000002C400000244000001840BE
:1038E0002D431CEBE2361A3F80842E41FFF7FFFF89
:1038F000541C434651462020B8472200931BAB423C
:10390000F6D3100004E7C046F0B5DE4657464E46F3
:103910004546E0B595B00690079193469946209F9D
:103920001E9A1F9B10001900FEF753FF002831D18B
:1039300001225242BF4B1E981F99FEF72FFF00280D
:1039400037D101225242BC4B1E981F99FEF73CFF13
:1039500000283DD10022B94B1E981F99FEF734FF75
:10396000002850D10022B64B1E981F99FEF716FF73
:10397000002848D1002200231E981F99FEF70EFF51
:10398000002850D100239846229B5B0500D4B6E066
:10399000002458E0229B0393219B0293032301936D
:1039A000A84B00934B465A4607990698FFF7F2FB3F
:1039B0000EE1229B0393219B029304230193A24BCC
:1039C00000934B465A4607990698FFF7E3FBFFE042
:1039D0000423229A1A4022990B4210D09B4B002AB2
:1039E0000FD0042222990391219902910192009310
:1039F0004B465A4607990698FFF7CCFBE8E0944BF4
:103A0000EDE70322EEE7229B0493219B03930297A9
:103A10001E9B1F9C009301944B465A46079906989B
:103A2000FFF768FDD4E01E9A1F9B00200021FEF7DF
:103A300042FE1E901F9101239846A5E70CAB302251
:103A40001A55013F01341F2C01D8092FF6D81E98B2
:103A50001F99FEF7E7FE0500FEF7CCFE02000B0003
:103A60001E981F99FEF727FEFA007A4B9B181A68DA
:103A70005B680A920B93FEF74EFE08900991FEF7E1
:103A8000F5FE0600FEF7B2FE02000B000898099949
:103A9000FEF711FE0890099100226F4BFEF794FE8D
:103AA00000282ED001363000FEF7A0FE02000B00E9
:103AB0000A980B99FEF778FE002801D00135002600
:103AC000002F2CD12800FEF795FE02000B001E9857
:103AD0001F99FEF7F0FD06000F0000225E4BFEF777
:103AE0005DFE002846D100225B4B30003900FEF716
:103AF0006BFE00283ED1EB073CD501353AE00627A6
:103B000046E70022544B08980999FEF747FE002823
:103B1000D6D1002E01D0F307D2D50136D0E7AA4680
:103B20001F2C11D8013F0A213000FEF789FB651CCC
:103B300030310CAB19550A213000FEF781FB092EFC
:103B40000ED906002C00EBE755461F2C0CD87B1E27
:103B5000002F09D00CAA302111551F000134F4E7C1
:103B60002B0055461C00F0E71F2C03D80CAB2E226F
:103B70001A5501341F2C10D80A212800FEF738FBF3
:103B8000661C30310CAB19550A212800FEF730FBBA
:103B9000051E01D03400EDE734000323229A1340C0
:103BA000012B1CD01F2C06D84346002B32D00CAB67
:103BB0002D221A550134229B0393219B02930194D9
:103BC0000CAB00934B465A4607990698FFF7E2FA6A
:103BD00015B0F0BCBB46B246A946A046F0BD219B3D
:103BE000002B13D04346002B02D10C3313420FD0CD
:103BF000219B013B2193190003E00CAB30221A55A5
:103C000001348C42CED21F2CF7D9CBE72199F8E7AB
:103C10002199F6E7229B5B0704D50CAB2B221A55A2
:103C20000134C8E7229B1B07C5D50CAB20221A55CF
:103C30000134C0E7FFFFEFFFFFFFEF7F65CDCD4110
:103C400065CDCDC16C8E0010708E0010648E00109A
:103C5000608E0010589000100000E03FF0B5DE4686
:103C600057464E464546E0B593B082468B46904651
:103C70001193002900D1EBE200275546119B1878DB
:103C8000002800D1E7E2252809D07C1C43463A00F1
:103C90005946A847119B013311932700EEE70133E2
:103CA00011930024119A11780B00203BD8B21028F0
:103CB00003D88300D048C3589F460B00303BDBB28B
:103CC000092B2CD92A292FD000230A93119B1A786B
:103CD0002E2A39D000239A46119A1378683BD9B21C
:103CE000122976D88B00C549CB589F4601231C4327
:103CF00001321192D6E702231C4301321192D1E71F
:103D000004231C4301321192CCE708231C430132E7
:103D10001192C7E710231C4301321192C2E711A888
:103D2000FFF726FA0A90D1E71C9B1A1D1C9218680F
:103D3000002804DB0A90119B01331193C6E702238C
:103D40001C4343420A93F6E78022D20014435A1CD4
:103D500011925A781300303BDBB2092B04D92A2A7E
:103D600007D000239A46B7E711A8FFF701FA824669
:103D7000B2E71C9B1A1D1C921868002804DB8246BF
:103D8000119B01331193A7E70020F8E780235B0024
:103D90002343511C119152786C2A01D01C0018E069
:103DA000C0239B001C430131119112E08023234367
:103DB000511C11915278682A01D01C0009E0C023DF
:103DC0001C430131119104E080235B001C4301324C
:103DD0001192119B18780300253BDAB2532A00D9BF
:103DE0002CE29300864AD3589F4680239B001C43B5
:103DF00001321192EDE780235B001C4301321192E6
:103E0000E7E7782809D0582838D06F2838D06228BA
:103E100038D010239C430A2600E01026582833D0BF
:103E2000692803D0642801D00C229443630501D58E
:103E30000122944369282AD0642828D0A30500D5FC
:103E40009FE0E30500D5B8E0630600D4CAE01C9A01
:103E5000111D1C911168FF220A4005940A9B0493CE
:103E600053460393029600230193009243463A007F
:103E700059462800FFF76EFA070027E01026CDE725
:103E80000826CBE70226C9E720221443C8E7A3058A
:103E900020D4E30550D4630666D51C9A111D1C91ED
:103EA0001168FF220A40D317D118594005940A9B84
:103EB0000493534603930296D20F01920091434616
:103EC0003A0059462800FFF745FA0700119B0133D5
:103ED0001193D3E61C9BDA1D07218A431100083198
:103EE0001C91116853689C46DB170C930D930C9A38
:103EF0000D9B100048400E90624653400F930E9861
:103F00000F990C9A0D9B801A99410E900F9108946D
:103F10000A9B079353460693049600230593634632
:103F2000DA0F02920090019143463A005946280068
:103F3000FFF76EFA0700C9E71C9A111D1C91126861
:103F4000D317D118594005940A9B04935346039301
:103F50000296D20F0192009143463A00594628003A
:103F6000FFF7F8F90700B1E7230605D51C9A111DE4
:103F70001C910023D25E96E71C9A111D1C911268B9
:103F800091E71C9BDA1D07218A43110008311C911F
:103F900008940A9B079353460693049600230593BF
:103FA0000293136854680093019443463A005946BB
:103FB0002800FFF72DFA070088E71C9A111D1C91B5
:103FC00005940A9B0493534603930296002301939E
:103FD0001368009343463A0059462800FFF7BAF9A0
:103FE000070073E723060DD51C9A111D1C9112685A
:103FF0001204120C31E7C046788E0010BC8E0010FF
:10400000088F00101C9A111D1C91126825E7462884
:104010001AD01C9B0733072293431A0008321C92C4
:1040200004940A9A0392524602925C681B680093B9
:10403000019443463A0059462800FFF765FC070003
:10404000119B0133119319E620231C43E1E76728F4
:1040500001D0472802D180231B011C43452801D0F1
:10406000472801D120231C431C9B0733072293437D
:104070001A0008321C9204940A9A03925246029241
:104080005C681B680093019443463A005946280037
:10409000FFF730FA0700119B01331193EEE502237D
:1040A0001A002240924623421FD001241C9B1A1D55
:1040B0001C927A1C9146187843463A005946A84704
:1040C0005346002B16D1119B013311934F46D5E572
:1040D000561C434659462020B847230032005C1C3A
:1040E0009D42F5D83D001700E0E701233A002F007C
:1040F0000A9DF4E74A46A9460A9D06E0571C434636
:1041000059462020C84734003A00661CA542F5D81D
:104110004D469146D7E71C9B1A1D1C921B68994679
:104120005346002B00D1013B4E4601E001361300FF
:104130003278002A02D05A1E002BF7D14B46F21AD1
:1041400010928023DB0026001E401C4203D0524503
:1041500001D95346109302231A0022400B922342A6
:1041600005D03A0037004C46A946554620E03A00B3
:10417000109B5F46B3462E0006E0551C43463900AF
:104180002020B04723002A005C1C0A999942F4D8E9
:1041900035005E46BB46109437004C46A94655464E
:1041A00006E01D000134561C43465946C8473200FC
:1041B0002078002804D0002FF4D06B1E002DF0D101
:1041C00017004D460B9B002B03D1119B013311931C
:1041D00054E50A9F109B06E0561C43465946202092
:1041E000A847230032005C1C9F42F5D81700ECE77B
:1041F00021231C431C9B1A1D1C921B6800930594D1
:10420000082304935346039310230293002301933E
:1042100043463A0059462800FFF79CF80700119BD7
:10422000013311932AE57C1C43463A005946252068
:10423000A847119B0133119327001FE57C1C4346BF
:104240003A005946A847119B01331193270015E501
:104250000A4B9A4610E5AA46474502D343465A1EE2
:1042600000E03A00434659460020D047380013B0DA
:10427000F0BCBB46B246A946A046F0BD6131001075
:104280000EB410B585B0010007AC08CC0394012230
:10429000009452420348FFF7E1FC05B010BC08BC93
:1042A00003B018475931001000B585B00290039152
:1042B0000121009313004A4202A90248FFF7CEFCF5
:1042C00005B000BD6331001000BEFDE703000A4ADF
:1042D0001268002A08D0084A1068C318074A9A4290
:1042E00006D3054A13607047034A05491160F2E797
:1042F00001204042F7E7C0468C1F00200000042048
:10430000F025002010B5FFF7DFFF000010B582B0E8
:104310000C001900002A0CD0084B002A0BD0019287
:10432000009323000200064800F060F90120FFF727
:10433000CBFF044BF1E7034AF1E7C046A890001019
:10434000B8900010B490001010B5EFF30583002B67
:1043500000D000BEFDF772FE034C01E008CC984788
:10436000024B9C42FAD310BDF4820010FC82001074
:1043700010B50300080011001B68984710BD00002D
:10438000F8B507000D001600437D002B02D0002475
:1043900000200CE003681100280098472DE03B7DC9
:1043A00010E0022115483B689847601C0134B44274
:1043B00014DA002CF3DD2B19013B1B780D3B5A421C
:1043C0005341DBB22A5D0A2AF0D1002BEED1A04284
:1043D000E7DA211A28183B689847E2E7B04203DA87
:1043E000311A28183B689847002E06DDAD19013DAB
:1043F0002B780D3B5A4253413B75F8BDE8900010B5
:1044000070B505000368002B16D00C4B1C6805E046
:10441000290004C92000FFF7B3FF2469002C09D04C
:104420002368002BF9D0064B1B68002BF0D0A34269
:10443000F3D1EDE700232B6070BDC0467C1F002048
:10444000881F002070B505000C000B68802B05D07C
:1044500021684B1C23606418257170BD0800FFF7AC
:10446000CFFFF5E710B5FDF7EDFB074A0023121863
:104470004B41002B03DB054803F0F6FE10BD012283
:104480005242034BF7E7C04640420F002015002080
:10449000FFFFFF7F10B5024803F0AEFE10BDC0461F
:1044A00020150020F0B5CE46474680B583B0060003
:1044B0000D0090461C00FFF7D5FF81466B1C05D010
:1044C000002C08D0184F194B1C6807E0300003F08F
:1044D00027FD0500F4E7164FF5E72469002C17D0F7
:1044E0002368002BF9D0134B1B68002B01D0A3428B
:1044F000F3D12A0031002000B8474346002BECD00E
:104500006B46D91D0A230B7001222000B847E4E74F
:104510004B46002B05D1280003B0C0BCB946B046BD
:10452000F0BDFFF7B7FFF6E7814300107C1F0020C6
:1045300071430010881F0020094A01E010331A005F
:104540001368002B08D08342F8D1002907D10369F2
:1045500013600023036102E0002900D0106070475F
:104560007C1F002010B5064B1C6801E098472469A9
:10457000002C03D06368002BF8D1F8E710BDC046CB
:104580007C1F002010B500F0A3F910BD70B5050028
:1045900003F0C6FC04000123012201002800FFF7FC
:1045A00081FFFFF7DFFF200070BD000070B5A2B0F3
:1045B00004000E00FFF756FF0500002301933300AF
:1045C000220001A90848FFF76FFE040001A8FFF7C9
:1045D00017FFFFF7C7FF002D02D1200022B070BDEA
:1045E000FFF758FFF9E7C046454400100FB400B587
:1045F00083B004A901C90191FFF7D8FF03B008BC3B
:1046000004B0184770470000014B00221A70704731
:10461000EA2500204B79FF2B0CD18B79002B0BD195
:10462000CB79012B0AD1082A0AD98A78054B1A704E
:10463000092000E0002070470020FCE70020FAE796
:104640000020F8E7EA2500200120704710B5012975
:1046500028D1117953791B020B43134909788B42F6
:1046600001D000201FE05378012B03D0022B12D081
:10467000002018E09178D3781B021943DB0507D599
:10468000480A4A0A01231A407E331940FDF7A2FC6A
:1046900001204042F5E7642200210020FDF742FCA2
:1046A000012000E0012010BDEA25002000487047ED
:1046B0000C91001010B51400012910D15378012B72
:1046C0000FD1127963791B021343072B01D000200D
:1046D00006E09F33044A210001F02AFB00E001209C
:1046E00010BD0020FCE7C04630910010012303708C
:1046F00000487047EC90001010B50B784878000225
:1047000018438A7812041043CB781B060343962281
:10471000D200934200D010BD01200022110040427F
:10472000FDF758FC024B1860024B19607047C046F9
:10473000181F00201C1F002010B5FDF783FA0E4A39
:10474000002312184B41002B12DB0C4803F08CFDA8
:1047500000280CD001200021404201F0B1F90020D6
:1047600001F056FC0028F5D1044803F045FD10BDCA
:1047700001225242024BE8E740420F00CC250020C4
:10478000FFFFFF7F10B5024B1878FCF715FC10BD3A
:10479000EB25002010B584B000212B4803F044FD28
:1047A000002821D1294B1B68002B1BD0274B1968EF
:1047B000EFF3108272B60B68002BFCD0BFF35F8F53
:1047C00022494A602248037801246340DBB2012475
:1047D00004700968BFF35F8F0020086082F31088BF
:1047E000002B17D104B010BD01200021404201F080
:1047F00067F9002001F0E4FB0400134803F0FCFC1F
:10480000002CEFD0134B1B68002BEBD0124A106822
:104810009847E7E7FDF702F80400FDF713FAFA22DC
:104820009200002312184B41002B09DB0121029159
:1048300000210191094900912000FDF75DF8D1E7C1
:1048400001225242064BF1E7CC2500209C23002098
:10485000EC250020181F00201C1F002065480010B8
:10486000FFFFFF7F70B5174B1B68002B21D0154B46
:104870001968EFF3108372B60A68002AFCD0BFF300
:104880005F8F10494B6000220F4802700968BFF328
:104890005F8F0A6083F31088002400250B4B187883
:1048A000FCF766FB002808D1002400252000290021
:1048B00070BDFA24A4000025F0E7044B1878FCF73B
:1048C0007BFBF3E79C230020EC250020EB25002058
:1048D00010B584B0D0231B061C68FCF79FFFFDF7C2
:1048E00065F8A0422CD12D4B1B7802F071F82C4BAF
:1048F0001B68002B2AD00120FCF740FDC0B2294CD8
:1049000020702949FCF77AFB20780121FCF74AFB4B
:104910000520FCF761FB041E1CD00120FCF7BCFA4B
:1049200001002248FCF788FD002221490520FCF700
:104930008FFB01211F48FFF7FFFD200004B010BDD1
:104940001D4B1E4AC1211E48FFF7E0FC1448FCF72E
:1049500031FDD0E7082200211448FEF7E9FBFCF7FF
:104960005DFF0400FDF76EF9FA2292000023121891
:104970004B41002B0DDB01210291002101911149D6
:1049800000912000FCF7B8FFC043C40F0028D4DA20
:10499000CFE7012252420C4BEDE7C046F09A0010DF
:1049A000CC250020EB250020954700109C230020FB
:1049B00085470010A00C0020D891001050920010E4
:1049C000E091001065480010FFFFFF7F10B5002048
:1049D00001F0D4FA10BD000070B505000C00FFF71F
:1049E000F5FF002834D0002001F0EAFA002832D088
:1049F000FDF728F91B4A002312184B41002B19DB45
:104A0000194803F031FC002828D0FFF7DFFF002809
:104A100004D0002001F0D4FA00280FD10120002199
:104A2000404201F04DF8032464420F4803F0E4FBD8
:104A3000200070BD012252420C4BE1E72200290008
:104A4000002001F0C9FA041EEFD103246442ECE710
:104A500003246442ECE703246442E9E7032464424C
:104A6000E6E7C04640420F00CC250020FFFFFF7F55
:104A7000F0B5C64600B580460C00FDF7E3F8314AB4
:104A8000002312184B41002B07DB2F4803F0ECFBEF
:104A9000002806D180BCB846F0BD012252422B4B03
:104AA000F3E7FFF793FF002849D1294B00200021AD
:104AB00018605960244803F09FFBEBE701200021B8
:104AC000404200F0FDFF002001F0A2FAFFF77EFF58
:104AD0000028EFD0002001F025FB002820D0A542BF
:104AE000E8DA661B002001F01DFB0200864200DCB4
:104AF0003200002AE2D043465919002001F0EEFAB4
:104B0000060001200021404200F0DAFF002001F001
:104B10007FFAAD19FDF796F80D4B18605960DEE786
:104B2000FDF790F80A4B1E685F680A4A0023921945
:104B30007B419942BED8D2D19042D0D9BAE7002564
:104B4000CDE7C04640420F00CC250020FFFFFF7F8D
:104B5000A816002020A1070000487047E09200102E
:104B6000004870478C92001010B50400154B1B785C
:104B7000002B0ED0002C11D1134B144A5A80012364
:104B800001335B001BB2C022920013430E48038026
:104B900010BD11210B4800F025F8EBE7052C0ED8CD
:104BA000A4000B4BE4580023122BE9D8E25C002A46
:104BB000E6D00133590004484252DBB2F4E700204A
:104BC000E6E7C046D4250020501F0020090400005D
:104BD000F492001010B5024800F034F810BDC04641
:104BE000B823002010B5002901D000230AE0114BA2
:104BF000114A35311148FFF789FB00240DE03732A7
:104C0000C25401334A1E9A420FD90F2B0DD85A08AD
:104C10000B4CA25CDC07F0D40424224114000F22C8
:104C20002240092AEBDC3032EAE7C0180023037087
:104C300010BDC0460C930010649300101493001034
:104C4000B823002070B588B0040004AD0026049697
:104C50000922002105A8FEF76BFA0096092200211F
:104C600001A8FEF765FA4B232B700D226946280038
:104C700003F0BAFA002304E05A1D69468A5CE25444
:104C80000133072BF8DD08B070BD000010B5038BB1
:104C90003F333F229343022915D0124C2268C26051
:104CA000D31823609C0610D10F4C624063408024CF
:104CB0006401A3420FD88906114380231B061943C0
:104CC0004368196010BD5B00E7E7084B084A5121B3
:104CD0000848FFF71BFB084B054A53210548FFF71F
:104CE00015FBC0469823002000001050309500109E
:104CF0005096001060950010BC95001070B504002F
:104D00007F230340C509580040194001264E8019F1
:104D100084706C426C4144700024C4700183C2767C
:104D2000012D1DD0DE0021498C46664459004919E9
:104D300049011D4C61188E605C00641964011A49B8
:104D40000C19A16800240C60002B0FD15B005B19CB
:104D50005B01154DEB1800225A60154ADA6070BDF0
:104D6000DE0014498C4666448660E5E7012D0ED0CE
:104D7000591EC900104CA44661445B005B195B01DD
:104D8000094CE31859601100FFF780FFE7E7591E4F
:104D9000C9000A4CA44661445B005B195B01024DEB
:104DA000EB185960EFE7C046901F002084001050B8
:104DB00000011050800010500C00105008001050DE
:104DC00010B504007F202040E40940000019400194
:104DD000024BC01800F032F910BDC046901F0020F1
:104DE00010B5002804D101210520FCF7DBF810BD27
:104DF000D421034B034A49000348FFF787FAC04612
:104E000004960010409600106095001010B5002820
:104E100005D1002200218020FFF7D2FF10BDD9214B
:104E2000024B034A49000348FFF770FA049600104A
:104E30003096001060950010024B80225202DA6416
:104E40007047C0460020115070B5041E26D100F0F6
:104E5000D3F8164D0C23AB67FF2215490520FCF74C
:104E6000F7F8402200211348FEF762F900224021A2
:104E70000020FFF743FF002240218020FFF73EFF84
:104E800003F0DAF901232B6480239B05EB64902364
:104E9000094AEA502000FFF7CFFF70BD7621074B8B
:104EA000074AFF310748FFF731FAC04600001150AA
:104EB00075040020901F002010D0010004960010FF
:104EC0006496001060950010044B1970002904D0FE
:104ED000034A902380218902D1507047E6250020A3
:104EE000002011500B785B0602D14B78052B00D0C7
:104EF00070478A78014B1A60FAE7C04600001150EB
:104F000010B50C0000280DD1097963791B020B4301
:104F10005B05590DE2789207920FA078FFF7EEFE3D
:104F2000012010BDF021034B034AFF310348FFF776
:104F3000EDF9C04604960010209600106095001010
:104F400010B503F079F910BD10B504000800110088
:104F50001A00002C03D1FFF733FF012010BDFE2102
:104F6000024B034A49000348FFF7D0F904960010AA
:104F7000109600106095001010B57F2213000B40B2
:104F80000A4205D1CA09012A0ED00220074A9066BA
:104F9000C9095800401840010549401880221201F3
:104FA000002103F079F910BD0120EFE70020115036
:104FB000901F002010B57F22100008400A4200D147
:104FC00010BDC909400040184001044940180023A1
:104FD000C3700022024903F05FF9F1E7901F00203F
:104FE000FFF7FFFF04E00A780270013101301A0078
:104FF000531E002AF7D1704710B580235B040A4A7C
:1050000013600A4A13600A4B1A6880235B049343B7
:10501000F9D18022520100210648FEF789F8064B9B
:1050200009225A6710BDC04600E0004000F0004071
:1050300008C00040000010500000115070B504007E
:105040000D001600837E002B17D1A6820023E38279
:105050000133A3762561200003F0FEF8002804D078
:105060000C4A902380218902D150200003F01CF9C2
:1050700000280AD00123237770BD81780648FFF706
:10508000B5FA200003F000F9DFE7200003F0F4F8A0
:10509000F2E7C046002011505497001070B505008B
:1050A00000240AE0D21A5201164B9B18002B11D093
:1050B000DB68280098470134E4B2134B1B78591C75
:1050C0002200A1420CDBA342ECD9104B1B68620109
:1050D0009B18EBE70E4A0F490F48FFF787FA10E0DD
:1050E0000E4C542200212000FEF722F8201D102231
:1050F000FF21FEF71DF8200014302022FF21FEF7CB
:1051000017F870BD10990010E52500200417002045
:1051100016020000EC9800109C970010301A002036
:1051200010B5FFF7BBFF00F057FE10BD70B50500CE
:105130000C001600486900F059FE63693200012135
:105140002800984770BD0000F0B5DE4657464E4631
:105150004546E0B583B082460139C8B2FFF700FD8D
:10516000002803D043780193022B0CD0514A5249B6
:105170005248FFF73BFA002003B0F0BCBB46B246F2
:10518000A946A046F0BDC5796A1101234C491A40D1
:1051900014010A781026B24322430A70AD112B4045
:1051A0005B01D2B22024A24313430B7006000936E0
:1051B0008278C3781B02134383469B445E4577D2B3
:1051C00073780B2B0AD0012399467378042B0AD1EC
:1051D0005B469B1B9BB2984600243DE0F3789946C2
:1051E0003378F618F1E7374A33493448FFF7FEF9C8
:1051F0000020C1E77D1B6D01334B5D1938E0334A58
:105200002D492E48FFF7F2F90020B5E72A69304B07
:105210009A423CD1019B994639E02E4A26492748BB
:10522000FFF7E4F90020A7E725482300009C2200AF
:105230003100143001F07AFCA4466644264B1B78FA
:1052400001339F42BADD254A1B491C48FFF7CEF9BE
:10525000002091E70134E4B21F4B1D786B1C27003E
:10526000A342EBDBA542C5D91D4B1D686301ED18B8
:10527000002DC4D04246310050462B69984700901B
:105280000828E7D98045E5D34B46012BBED0002145
:105290008945C9D9B3785B18DBB2094AD2181279AB
:1052A000FF2ABAD1064AD3181C710131C9B2EFE7FF
:1052B000012061E7C7030000C09800109C97001010
:1052C000301A0020E203000010990010EB030000E8
:1052D000C96200100A040000E5250020190400003E
:1052E0000417002070477047002070470020704767
:1052F00070B505000C00CB7888780F2B53D89A0036
:105300002E498A589746FFF727FC021E05D0122324
:105310002100280000F00CFD46E0294A29492A48CE
:10532000FFF764F900203FE0FFF7C0F9021E3CD010
:105330008178C3781B020B432100280000F0F8FCA1
:1053400032E0022B0CD0FFF7D1FF021E2FD0917854
:10535000D3781B020B432100280000F0E9FC23E076
:10536000FFF7FEFB021EF2D1184A16491648FFF756
:105370003DF9002018E02379617909021943FFF70C
:10538000F3FB021E15D003782100280000F0D0FCAA
:105390000AE0FFF7A9FF021E0DD0037821002800C4
:1053A00000F0C6FC00E0002070BD0020FCE70020FB
:1053B000FAE70020F8E70020F6E7C046B4970010AF
:1053C0002B040000A89800109C97001052040000C5
:1053D0007047704770477047024B5878431E98419A
:1053E000C0B27047301A0020024B18784007C00F37
:1053F0007047C046301A0020034B1878FF38431E10
:105400009841C0B27047C046D40C002070B505006A
:10541000FFF7F2FF061E01D0300070BD54220021BC
:105420002448FDF785FE244B00221A70234C2000EF
:10543000FBF7C0FF224B1C60224C20001430FCF70D
:1054400005F8200001F00EFF1F4B1C601F4B002BC6
:1054500004D01F48FFF74AF91E4B186000240BE0E8
:10546000D21A52011C4B9B18002B12D05B68002BE8
:105470000FD098470134E4B2154B1B78591C220019
:10548000A1420DDBA342EBD9124B1B6862019B18B2
:10549000EAE7F122520011491148FFF7A7F8BBE7EC
:1054A000104B1D702800FFF7CFFC2800FFF798FC79
:1054B0000126B1E7301A0020E7250020E819002076
:1054C000841A0020B80C0020881A0020ED46001035
:1054D000E525002004170020109900106C9800109A
:1054E0009C970010D40C002070B50D00104B1E7856
:1054F0008B7870221A420DD10E4B9978280001F05A
:10550000BFFA041E0DD029003000FFF7F9FC04009B
:10551000200070BD084A09490948FFF767F80024D0
:10552000F6E7084A05490648FFF760F8F0E7C04685
:10553000D40C0020301A0020FC04000078980010E1
:105540009C970010FD040000F0B5D6464F46464635
:10555000C0B581460C0017009846089B9A46002566
:1055600017E09B22D20017491748FFF73FF80026A3
:105570003000E0BCBA46B146A846F0BD134A114916
:105580001148FFF733F8F3E7099A13702378E4180A
:105590000135AF4214DD6378052BE2D1E17889074C
:1055A000890F4145DDD121004846FFF79DFF061ECA
:1055B000E4D0A378DA09012AE6D052461370E5E771
:1055C0000126D5E7889800109C970010D9040000A8
:1055D00010B57F200840C909400040183030044908
:1055E00008180430034B196801F004FA10BDC046D6
:1055F000301A0020841A002010B57F200840C90905
:10560000400040183030044908180430034B196832
:1056100001F018FA10BDC046301A0020841A00208C
:10562000F0B5C64600B582B001931A4800787F25D0
:105630000D40CE096F00184CE419A41930342479B8
:10564000E4071DD46F00144CE419A41930342379F5
:105650000127BC4667463B432371019BFFF774FC5F
:10566000002813D16D000C4B5D19AE19303633791B
:10567000012293433371337903329343337105E04D
:10568000064A07490748FEF7B1FF002002B080BC78
:10569000B846F0BDD40C0020301A00202A050000C6
:1056A0005C9800109C97001070B50A4B18787F2406
:1056B0000C40CD09FFF760FC6400074B1B195B1918
:1056C00030331A7902210A431A711A7901210A43E7
:1056D0001A7170BDD40C0020301A002070B50A4B2E
:1056E00018787F240C40CD09FFF764FC6400074B59
:1056F0001B195B1930331A7902218A431A711A79FE
:1057000001398A431A7170BDD40C0020301A002070
:105710007F220A40CB09520003498918C918303149
:1057200008798007C00F7047301A0020F0B5C646D0
:1057300000B582B004000D00002000F057FB2B786C
:1057400060221A40602A12D0402A17D02B78DB063C
:10575000DB0E012B00D1DAE0022B00D11AE1002B85
:1057600016D00026300002B080BCB846F0BDC94A51
:10577000C949CA48FEF73AFF0026F3E7C84800F0D7
:1057800035FB2A0001212000FEF794FF0600E9E71F
:10579000202A0AD0002A00D06EE16B78092B00D9AC
:1057A0006CE19B00BF4AD3589F462B790F2B00D941
:1057B0005CE1BD4AD3181B79BC4A11788B420CD2EC
:1057C000BB4A126859015118002900D152E12A0040
:1057D0002000FFF7ABFC0600C4E74A1C9A4200DA3F
:1057E00046E1591A4901B34B5918EDE7280000F07A
:1057F00003FBA9782000FFF709FBAB4A13780221CD
:105800000B4313700126ADE7A74B5B786A4606325F
:10581000137001232900200000F08AFA0126A1E775
:10582000AE78A14B5B78DBB2B3422BD09E4B5B785A
:10583000002B0CD19C4B5E70002E21D0310020003B
:10584000FFF782FC061E12D0FFF7C2FD1AE000210E
:105850002000FFF739FB2000FFF772FB924FBB7867
:1058600098462000FFF71AFC4346BB70E2E7924AD5
:1058700089498A48FEF7BAFE8B4B00225A7071E7BD
:10588000FFF7A7FD2900200000F036FA012669E79E
:1058900029002000FFF72CFD060063E7A978EB78CC
:1058A0001B020B43012B01D000265BE77E4A1378D5
:1058B00008210B4313702900200000F01DFA012677
:1058C00050E7A978EB781B020B43012B01D000268F
:1058D00048E7754A137808218B431370290020008C
:1058E00000F00AFA01263DE76F4B1A785109920839
:1058F00001230B4002210A4013436A4606321380FB
:1059000002232900200000F013FA01262AE72B7950
:105910000F2B00D9B4E0644AD3181B79634A11787D
:105920008B4223D2624A126859015118002900D1D2
:10593000AAE02A002000FFF7F9FB061E00D011E7BD
:105940002B7860221A4200D00CE76B780A3B012BBF
:1059500000D907E7002000F049FA6B780A2B0ED037
:105960002900200000F0C8F90126FBE64A1C9A42F3
:1059700000DA87E0591A49014E4B5918D6E76B46B1
:105980009A1D0023137001332900200000F0D0F984
:105990000136E7E629797F230B40CE0970200842C3
:1059A00017D15B004048C3189B191B7D3F48007806
:1059B000834215D23E4806685B01F618002A19D0CA
:1059C000002E63D02A0031002000FFF7AFFB060055
:1059D000C8E63A4A30493148FEF708FE0026C1E6DB
:1059E000461C9E4204DB1B1A5B01324EF618E5E7AB
:1059F0000026E3E76A78012A12D0032A10D0002A91
:105A000001D00026AEE62000FFF782FE6B469A1D0D
:105A1000108002232900200000F08AF90126A1E667
:105A2000A878EB781B02034304D1012A1AD0200086
:105A3000FFF73AFE002E2BD02A0031002000FFF79E
:105A400075FB002000F0D2F9174A3523D35CDB0741
:105A5000DE0F002B00D085E62900200000F04CF975
:105A600001267FE62000FFF739FEE3E7002679E60E
:105A7000002677E6002675E6002673E6002671E626
:105A800000266FE600266DE600266BE6002669E636
:105A9000012667E6C5020000D49800109C9700100C
:105AA000B546001010980010301A0020E52500209F
:105AB0000417002010990010150300008603000051
:105AC00030B585B0FFF798FC002808D105B030BD8F
:105AD00001AC2078FFF724FB2279644B9A70644B69
